{
  "contractName": "dex",
  "abi": [
    {
      "inputs": [],
      "stateMutability": "nonpayable",
      "type": "constructor"
    },
    {
      "anonymous": false,
      "inputs": [
        {
          "indexed": false,
          "internalType": "address",
          "name": "account",
          "type": "address"
        },
        {
          "indexed": false,
          "internalType": "address",
          "name": "token",
          "type": "address"
        },
        {
          "indexed": false,
          "internalType": "uint256",
          "name": "amount",
          "type": "uint256"
        }
      ],
      "name": "TokenPurchased",
      "type": "event"
    },
    {
      "anonymous": false,
      "inputs": [
        {
          "indexed": false,
          "internalType": "address",
          "name": "account",
          "type": "address"
        },
        {
          "indexed": false,
          "internalType": "address",
          "name": "token",
          "type": "address"
        },
        {
          "indexed": false,
          "internalType": "uint256",
          "name": "amount",
          "type": "uint256"
        }
      ],
      "name": "TokensSold",
      "type": "event"
    },
    {
      "anonymous": false,
      "inputs": [
        {
          "indexed": false,
          "internalType": "address",
          "name": "account",
          "type": "address"
        },
        {
          "indexed": false,
          "internalType": "address",
          "name": "token1",
          "type": "address"
        },
        {
          "indexed": false,
          "internalType": "address",
          "name": "token2",
          "type": "address"
        },
        {
          "indexed": false,
          "internalType": "uint256",
          "name": "amount",
          "type": "uint256"
        }
      ],
      "name": "TokensSwaped",
      "type": "event"
    },
    {
      "inputs": [],
      "name": "AxsToken",
      "outputs": [
        {
          "internalType": "contract axsToken",
          "name": "",
          "type": "address"
        }
      ],
      "stateMutability": "view",
      "type": "function",
      "constant": true
    },
    {
      "inputs": [],
      "name": "SkyToken",
      "outputs": [
        {
          "internalType": "contract skyToken",
          "name": "",
          "type": "address"
        }
      ],
      "stateMutability": "view",
      "type": "function",
      "constant": true
    },
    {
      "inputs": [
        {
          "internalType": "contract ERC20",
          "name": "token",
          "type": "address"
        },
        {
          "internalType": "uint256",
          "name": "tokenAmount",
          "type": "uint256"
        }
      ],
      "name": "buy",
      "outputs": [],
      "stateMutability": "payable",
      "type": "function",
      "payable": true
    },
    {
      "inputs": [
        {
          "internalType": "contract ERC20",
          "name": "token",
          "type": "address"
        },
        {
          "internalType": "uint256",
          "name": "tokenAmount",
          "type": "uint256"
        },
        {
          "internalType": "uint256",
          "name": "ethAmount",
          "type": "uint256"
        }
      ],
      "name": "sell",
      "outputs": [],
      "stateMutability": "nonpayable",
      "type": "function"
    },
    {
      "inputs": [
        {
          "internalType": "contract ERC20",
          "name": "token1",
          "type": "address"
        },
        {
          "internalType": "contract ERC20",
          "name": "token2",
          "type": "address"
        },
        {
          "internalType": "uint256",
          "name": "token1Amount",
          "type": "uint256"
        },
        {
          "internalType": "uint256",
          "name": "token2Amount",
          "type": "uint256"
        }
      ],
      "name": "swapToken",
      "outputs": [],
      "stateMutability": "nonpayable",
      "type": "function"
    }
  ],
  "bytecode": "0x608060405234801561001057600080fd5b5060405161001d906100e7565b604051809103906000f080158015610039573d6000803e3d6000fd5b506000806101000a81548173ffffffffffffffffffffffffffffffffffffffff021916908373ffffffffffffffffffffffffffffffffffffffff160217905550604051610085906100f4565b604051809103906000f0801580156100a1573d6000803e3d6000fd5b50600160006101000a81548173ffffffffffffffffffffffffffffffffffffffff021916908373ffffffffffffffffffffffffffffffffffffffff160217905550610101565b61199380610a3483390190565b611993806123c783390190565b610924806101106000396000f3fe60806040526004361061004a5760003560e01c806337476ced1461004f5780636a2724621461007857806376a2e158146100a1578063a23a5315146100cc578063cce7ec13146100f7575b600080fd5b34801561005b57600080fd5b50610076600480360381019061007191906105b9565b610113565b005b34801561008457600080fd5b5061009f600480360381019061009a9190610620565b610256565b005b3480156100ad57600080fd5b506100b661035e565b6040516100c391906106d2565b60405180910390f35b3480156100d857600080fd5b506100e1610382565b6040516100ee919061070e565b60405180910390f35b610111600480360381019061010c9190610729565b6103a8565b005b8373ffffffffffffffffffffffffffffffffffffffff166323b872dd3330856040518463ffffffff1660e01b815260040161015093929190610787565b6020604051808303816000875af115801561016f573d6000803e3d6000fd5b505050506040513d601f19601f8201168201806040525081019061019391906107f6565b508273ffffffffffffffffffffffffffffffffffffffff1663a9059cbb33836040518363ffffffff1660e01b81526004016101cf929190610823565b6020604051808303816000875af11580156101ee573d6000803e3d6000fd5b505050506040513d601f19601f8201168201806040525081019061021291906107f6565b507f489f18cf7c4608bd55c8f3b1d215b02b2fd932b2789750f9fdfb6bf9d52ce37c33858585604051610248949392919061084c565b60405180910390a150505050565b8273ffffffffffffffffffffffffffffffffffffffff166323b872dd3330856040518463ffffffff1660e01b815260040161029393929190610787565b6020604051808303816000875af11580156102b2573d6000803e3d6000fd5b505050506040513d601f19601f820116820180604052508101906102d691906107f6565b503373ffffffffffffffffffffffffffffffffffffffff166108fc829081150290604051600060405180830381858888f1935050505015801561031d573d6000803e3d6000fd5b507f481809cba951bfbd752234d0504d4719277804f87f6e0da1b5b486c80d808fe433848460405161035193929190610787565b60405180910390a1505050565b60008054906101000a900473ffffffffffffffffffffffffffffffffffffffff1681565b600160009054906101000a900473ffffffffffffffffffffffffffffffffffffffff1681565b808273ffffffffffffffffffffffffffffffffffffffff166370a08231306040518263ffffffff1660e01b81526004016103e29190610891565b602060405180830381865afa1580156103ff573d6000803e3d6000fd5b505050506040513d601f19601f8201168201806040525081019061042391906108c1565b101561042e57600080fd5b8173ffffffffffffffffffffffffffffffffffffffff1663a9059cbb33836040518363ffffffff1660e01b8152600401610469929190610823565b6020604051808303816000875af1158015610488573d6000803e3d6000fd5b505050506040513d601f19601f820116820180604052508101906104ac91906107f6565b507f6f1484a4f7f63ca4907ad663391c1a0791c0a77cc97042c4a4b3162476c0ab1033600160009054906101000a900473ffffffffffffffffffffffffffffffffffffffff168360405161050293929190610787565b60405180910390a15050565b600080fd5b600073ffffffffffffffffffffffffffffffffffffffff82169050919050565b600061053e82610513565b9050919050565b600061055082610533565b9050919050565b61056081610545565b811461056b57600080fd5b50565b60008135905061057d81610557565b92915050565b6000819050919050565b61059681610583565b81146105a157600080fd5b50565b6000813590506105b38161058d565b92915050565b600080600080608085870312156105d3576105d261050e565b5b60006105e18782880161056e565b94505060206105f28782880161056e565b9350506040610603878288016105a4565b9250506060610614878288016105a4565b91505092959194509250565b6000806000606084860312156106395761063861050e565b5b60006106478682870161056e565b9350506020610658868287016105a4565b9250506040610669868287016105a4565b9150509250925092565b6000819050919050565b600061069861069361068e84610513565b610673565b610513565b9050919050565b60006106aa8261067d565b9050919050565b60006106bc8261069f565b9050919050565b6106cc816106b1565b82525050565b60006020820190506106e760008301846106c3565b92915050565b60006106f88261069f565b9050919050565b610708816106ed565b82525050565b600060208201905061072360008301846106ff565b92915050565b600080604083850312156107405761073f61050e565b5b600061074e8582860161056e565b925050602061075f858286016105a4565b9150509250929050565b61077281610533565b82525050565b61078181610583565b82525050565b600060608201905061079c6000830186610769565b6107a96020830185610769565b6107b66040830184610778565b949350505050565b60008115159050919050565b6107d3816107be565b81146107de57600080fd5b50565b6000815190506107f0816107ca565b92915050565b60006020828403121561080c5761080b61050e565b5b600061081a848285016107e1565b91505092915050565b60006040820190506108386000830185610769565b6108456020830184610778565b9392505050565b60006080820190506108616000830187610769565b61086e6020830186610769565b61087b6040830185610769565b6108886060830184610778565b95945050505050565b60006020820190506108a66000830184610769565b92915050565b6000815190506108bb8161058d565b92915050565b6000602082840312156108d7576108d661050e565b5b60006108e5848285016108ac565b9150509291505056fea26469706673582212204bdba47d100d0cca763c725069cc54be251ef9995823bfaa876feee7a7f2783b64736f6c634300080e003360806040523480156200001157600080fd5b506040518060400160405280600b81526020017f4178696520546f6b656e730000000000000000000000000000000000000000008152506040518060400160405280600381526020017f415853000000000000000000000000000000000000000000000000000000000081525081600390805190602001906200009692919062000282565b508060049080519060200190620000af92919062000282565b505050620000f133620000c7620000f760201b60201c565b600a620000d59190620004cc565b620f4240620000e591906200051d565b6200010060201b60201c565b620006f0565b60006012905090565b600073ffffffffffffffffffffffffffffffffffffffff168273ffffffffffffffffffffffffffffffffffffffff160362000172576040517f08c379a00000000000000000000000000000000000000000000000000000000081526004016200016990620005df565b60405180910390fd5b62000186600083836200027860201b60201c565b80600260008282546200019a919062000601565b92505081905550806000808473ffffffffffffffffffffffffffffffffffffffff1673ffffffffffffffffffffffffffffffffffffffff1681526020019081526020016000206000828254620001f1919062000601565b925050819055508173ffffffffffffffffffffffffffffffffffffffff16600073ffffffffffffffffffffffffffffffffffffffff167fddf252ad1be2c89b69c2b068fc378daa952ba7f163c4a11628f55a4df523b3ef836040516200025891906200066f565b60405180910390a362000274600083836200027d60201b60201c565b5050565b505050565b505050565b8280546200029090620006bb565b90600052602060002090601f016020900481019282620002b4576000855562000300565b82601f10620002cf57805160ff191683800117855562000300565b8280016001018555821562000300579182015b82811115620002ff578251825591602001919060010190620002e2565b5b5090506200030f919062000313565b5090565b5b808211156200032e57600081600090555060010162000314565b5090565b7f4e487b7100000000000000000000000000000000000000000000000000000000600052601160045260246000fd5b60008160011c9050919050565b6000808291508390505b6001851115620003c05780860481111562000398576200039762000332565b5b6001851615620003a85780820291505b8081029050620003b88562000361565b945062000378565b94509492505050565b600082620003db5760019050620004ae565b81620003eb5760009050620004ae565b81600181146200040457600281146200040f5762000445565b6001915050620004ae565b60ff84111562000424576200042362000332565b5b8360020a9150848211156200043e576200043d62000332565b5b50620004ae565b5060208310610133831016604e8410600b84101617156200047f5782820a90508381111562000479576200047862000332565b5b620004ae565b6200048e84848460016200036e565b92509050818404811115620004a857620004a762000332565b5b81810290505b9392505050565b6000819050919050565b600060ff82169050919050565b6000620004d982620004b5565b9150620004e683620004bf565b9250620005157fffffffffffffffffffffffffffffffffffffffffffffffffffffffffffffffff8484620003c9565b905092915050565b60006200052a82620004b5565b91506200053783620004b5565b9250817fffffffffffffffffffffffffffffffffffffffffffffffffffffffffffffffff048311821515161562000573576200057262000332565b5b828202905092915050565b600082825260208201905092915050565b7f45524332303a206d696e7420746f20746865207a65726f206164647265737300600082015250565b6000620005c7601f836200057e565b9150620005d4826200058f565b602082019050919050565b60006020820190508181036000830152620005fa81620005b8565b9050919050565b60006200060e82620004b5565b91506200061b83620004b5565b9250827fffffffffffffffffffffffffffffffffffffffffffffffffffffffffffffffff0382111562000653576200065262000332565b5b828201905092915050565b6200066981620004b5565b82525050565b60006020820190506200068660008301846200065e565b92915050565b7f4e487b7100000000000000000000000000000000000000000000000000000000600052602260045260246000fd5b60006002820490506001821680620006d457607f821691505b602082108103620006ea57620006e96200068c565b5b50919050565b61129380620007006000396000f3fe608060405234801561001057600080fd5b50600436106100b45760003560e01c80633950935111610071578063395093511461019157806370a08231146101c157806395d89b41146101f1578063a457c2d71461020f578063a9059cbb1461023f578063dd62ed3e1461026f576100b4565b806306fdde03146100b9578063095ea7b3146100d757806318160ddd1461010757806323b872dd146101255780632ddbd13a14610155578063313ce56714610173575b600080fd5b6100c161029f565b6040516100ce9190610b4e565b60405180910390f35b6100f160048036038101906100ec9190610c09565b610331565b6040516100fe9190610c64565b60405180910390f35b61010f610354565b60405161011c9190610c8e565b60405180910390f35b61013f600480360381019061013a9190610ca9565b61035e565b60405161014c9190610c64565b60405180910390f35b61015d61038d565b60405161016a9190610c8e565b60405180910390f35b61017b610394565b6040516101889190610d18565b60405180910390f35b6101ab60048036038101906101a69190610c09565b61039d565b6040516101b89190610c64565b60405180910390f35b6101db60048036038101906101d69190610d33565b6103d4565b6040516101e89190610c8e565b60405180910390f35b6101f961041c565b6040516102069190610b4e565b60405180910390f35b61022960048036038101906102249190610c09565b6104ae565b6040516102369190610c64565b60405180910390f35b61025960048036038101906102549190610c09565b610525565b6040516102669190610c64565b60405180910390f35b61028960048036038101906102849190610d60565b610548565b6040516102969190610c8e565b60405180910390f35b6060600380546102ae90610dcf565b80601f01602080910402602001604051908101604052809291908181526020018280546102da90610dcf565b80156103275780601f106102fc57610100808354040283529160200191610327565b820191906000526020600020905b81548152906001019060200180831161030a57829003601f168201915b5050505050905090565b60008061033c6105cf565b90506103498185856105d7565b600191505092915050565b6000600254905090565b6000806103696105cf565b90506103768582856107a0565b61038185858561082c565b60019150509392505050565b620f424081565b60006012905090565b6000806103a86105cf565b90506103c98185856103ba8589610548565b6103c49190610e2f565b6105d7565b600191505092915050565b60008060008373ffffffffffffffffffffffffffffffffffffffff1673ffffffffffffffffffffffffffffffffffffffff168152602001908152602001600020549050919050565b60606004805461042b90610dcf565b80601f016020809104026020016040519081016040528092919081815260200182805461045790610dcf565b80156104a45780601f10610479576101008083540402835291602001916104a4565b820191906000526020600020905b81548152906001019060200180831161048757829003601f168201915b5050505050905090565b6000806104b96105cf565b905060006104c78286610548565b90508381101561050c576040517f08c379a000000000000000000000000000000000000000000000000000000000815260040161050390610ef7565b60405180910390fd5b61051982868684036105d7565b60019250505092915050565b6000806105306105cf565b905061053d81858561082c565b600191505092915050565b6000600160008473ffffffffffffffffffffffffffffffffffffffff1673ffffffffffffffffffffffffffffffffffffffff16815260200190815260200160002060008373ffffffffffffffffffffffffffffffffffffffff1673ffffffffffffffffffffffffffffffffffffffff16815260200190815260200160002054905092915050565b600033905090565b600073ffffffffffffffffffffffffffffffffffffffff168373ffffffffffffffffffffffffffffffffffffffff1603610646576040517f08c379a000000000000000000000000000000000000000000000000000000000815260040161063d90610f89565b60405180910390fd5b600073ffffffffffffffffffffffffffffffffffffffff168273ffffffffffffffffffffffffffffffffffffffff16036106b5576040517f08c379a00000000000000000000000000000000000000000000000000000000081526004016106ac9061101b565b60405180910390fd5b80600160008573ffffffffffffffffffffffffffffffffffffffff1673ffffffffffffffffffffffffffffffffffffffff16815260200190815260200160002060008473ffffffffffffffffffffffffffffffffffffffff1673ffffffffffffffffffffffffffffffffffffffff168152602001908152602001600020819055508173ffffffffffffffffffffffffffffffffffffffff168373ffffffffffffffffffffffffffffffffffffffff167f8c5be1e5ebec7d5bd14f71427d1e84f3dd0314c0f7b2291e5b200ac8c7c3b925836040516107939190610c8e565b60405180910390a3505050565b60006107ac8484610548565b90507fffffffffffffffffffffffffffffffffffffffffffffffffffffffffffffffff81146108265781811015610818576040517f08c379a000000000000000000000000000000000000000000000000000000000815260040161080f90611087565b60405180910390fd5b61082584848484036105d7565b5b50505050565b600073ffffffffffffffffffffffffffffffffffffffff168373ffffffffffffffffffffffffffffffffffffffff160361089b576040517f08c379a000000000000000000000000000000000000000000000000000000000815260040161089290611119565b60405180910390fd5b600073ffffffffffffffffffffffffffffffffffffffff168273ffffffffffffffffffffffffffffffffffffffff160361090a576040517f08c379a0000000000000000000000000000000000000000000000000000000008152600401610901906111ab565b60405180910390fd5b610915838383610aab565b60008060008573ffffffffffffffffffffffffffffffffffffffff1673ffffffffffffffffffffffffffffffffffffffff1681526020019081526020016000205490508181101561099b576040517f08c379a00000000000000000000000000000000000000000000000000000000081526004016109929061123d565b60405180910390fd5b8181036000808673ffffffffffffffffffffffffffffffffffffffff1673ffffffffffffffffffffffffffffffffffffffff16815260200190815260200160002081905550816000808573ffffffffffffffffffffffffffffffffffffffff1673ffffffffffffffffffffffffffffffffffffffff1681526020019081526020016000206000828254610a2e9190610e2f565b925050819055508273ffffffffffffffffffffffffffffffffffffffff168473ffffffffffffffffffffffffffffffffffffffff167fddf252ad1be2c89b69c2b068fc378daa952ba7f163c4a11628f55a4df523b3ef84604051610a929190610c8e565b60405180910390a3610aa5848484610ab0565b50505050565b505050565b505050565b600081519050919050565b600082825260208201905092915050565b60005b83811015610aef578082015181840152602081019050610ad4565b83811115610afe576000848401525b50505050565b6000601f19601f8301169050919050565b6000610b2082610ab5565b610b2a8185610ac0565b9350610b3a818560208601610ad1565b610b4381610b04565b840191505092915050565b60006020820190508181036000830152610b688184610b15565b905092915050565b600080fd5b600073ffffffffffffffffffffffffffffffffffffffff82169050919050565b6000610ba082610b75565b9050919050565b610bb081610b95565b8114610bbb57600080fd5b50565b600081359050610bcd81610ba7565b92915050565b6000819050919050565b610be681610bd3565b8114610bf157600080fd5b50565b600081359050610c0381610bdd565b92915050565b60008060408385031215610c2057610c1f610b70565b5b6000610c2e85828601610bbe565b9250506020610c3f85828601610bf4565b9150509250929050565b60008115159050919050565b610c5e81610c49565b82525050565b6000602082019050610c796000830184610c55565b92915050565b610c8881610bd3565b82525050565b6000602082019050610ca36000830184610c7f565b92915050565b600080600060608486031215610cc257610cc1610b70565b5b6000610cd086828701610bbe565b9350506020610ce186828701610bbe565b9250506040610cf286828701610bf4565b9150509250925092565b600060ff82169050919050565b610d1281610cfc565b82525050565b6000602082019050610d2d6000830184610d09565b92915050565b600060208284031215610d4957610d48610b70565b5b6000610d5784828501610bbe565b91505092915050565b60008060408385031215610d7757610d76610b70565b5b6000610d8585828601610bbe565b9250506020610d9685828601610bbe565b9150509250929050565b7f4e487b7100000000000000000000000000000000000000000000000000000000600052602260045260246000fd5b60006002820490506001821680610de757607f821691505b602082108103610dfa57610df9610da0565b5b50919050565b7f4e487b7100000000000000000000000000000000000000000000000000000000600052601160045260246000fd5b6000610e3a82610bd3565b9150610e4583610bd3565b9250827fffffffffffffffffffffffffffffffffffffffffffffffffffffffffffffffff03821115610e7a57610e79610e00565b5b828201905092915050565b7f45524332303a2064656372656173656420616c6c6f77616e63652062656c6f7760008201527f207a65726f000000000000000000000000000000000000000000000000000000602082015250565b6000610ee1602583610ac0565b9150610eec82610e85565b604082019050919050565b60006020820190508181036000830152610f1081610ed4565b9050919050565b7f45524332303a20617070726f76652066726f6d20746865207a65726f2061646460008201527f7265737300000000000000000000000000000000000000000000000000000000602082015250565b6000610f73602483610ac0565b9150610f7e82610f17565b604082019050919050565b60006020820190508181036000830152610fa281610f66565b9050919050565b7f45524332303a20617070726f766520746f20746865207a65726f20616464726560008201527f7373000000000000000000000000000000000000000000000000000000000000602082015250565b6000611005602283610ac0565b915061101082610fa9565b604082019050919050565b6000602082019050818103600083015261103481610ff8565b9050919050565b7f45524332303a20696e73756666696369656e7420616c6c6f77616e6365000000600082015250565b6000611071601d83610ac0565b915061107c8261103b565b602082019050919050565b600060208201905081810360008301526110a081611064565b9050919050565b7f45524332303a207472616e736665722066726f6d20746865207a65726f20616460008201527f6472657373000000000000000000000000000000000000000000000000000000602082015250565b6000611103602583610ac0565b915061110e826110a7565b604082019050919050565b60006020820190508181036000830152611132816110f6565b9050919050565b7f45524332303a207472616e7366657220746f20746865207a65726f206164647260008201527f6573730000000000000000000000000000000000000000000000000000000000602082015250565b6000611195602383610ac0565b91506111a082611139565b604082019050919050565b600060208201905081810360008301526111c481611188565b9050919050565b7f45524332303a207472616e7366657220616d6f756e742065786365656473206260008201527f616c616e63650000000000000000000000000000000000000000000000000000602082015250565b6000611227602683610ac0565b9150611232826111cb565b604082019050919050565b600060208201905081810360008301526112568161121a565b905091905056fea26469706673582212208f4eece35f2a1aff2c8c5103ae1314683120678dfb6927bb549532e71a5b26fe64736f6c634300080e003360806040523480156200001157600080fd5b506040518060400160405280600f81526020017f536b7977656176657220546f6b656e00000000000000000000000000000000008152506040518060400160405280600381526020017f534b59000000000000000000000000000000000000000000000000000000000081525081600390805190602001906200009692919062000282565b508060049080519060200190620000af92919062000282565b505050620000f133620000c7620000f760201b60201c565b600a620000d59190620004cc565b620f4240620000e591906200051d565b6200010060201b60201c565b620006f0565b60006012905090565b600073ffffffffffffffffffffffffffffffffffffffff168273ffffffffffffffffffffffffffffffffffffffff160362000172576040517f08c379a00000000000000000000000000000000000000000000000000000000081526004016200016990620005df565b60405180910390fd5b62000186600083836200027860201b60201c565b80600260008282546200019a919062000601565b92505081905550806000808473ffffffffffffffffffffffffffffffffffffffff1673ffffffffffffffffffffffffffffffffffffffff1681526020019081526020016000206000828254620001f1919062000601565b925050819055508173ffffffffffffffffffffffffffffffffffffffff16600073ffffffffffffffffffffffffffffffffffffffff167fddf252ad1be2c89b69c2b068fc378daa952ba7f163c4a11628f55a4df523b3ef836040516200025891906200066f565b60405180910390a362000274600083836200027d60201b60201c565b5050565b505050565b505050565b8280546200029090620006bb565b90600052602060002090601f016020900481019282620002b4576000855562000300565b82601f10620002cf57805160ff191683800117855562000300565b8280016001018555821562000300579182015b82811115620002ff578251825591602001919060010190620002e2565b5b5090506200030f919062000313565b5090565b5b808211156200032e57600081600090555060010162000314565b5090565b7f4e487b7100000000000000000000000000000000000000000000000000000000600052601160045260246000fd5b60008160011c9050919050565b6000808291508390505b6001851115620003c05780860481111562000398576200039762000332565b5b6001851615620003a85780820291505b8081029050620003b88562000361565b945062000378565b94509492505050565b600082620003db5760019050620004ae565b81620003eb5760009050620004ae565b81600181146200040457600281146200040f5762000445565b6001915050620004ae565b60ff84111562000424576200042362000332565b5b8360020a9150848211156200043e576200043d62000332565b5b50620004ae565b5060208310610133831016604e8410600b84101617156200047f5782820a90508381111562000479576200047862000332565b5b620004ae565b6200048e84848460016200036e565b92509050818404811115620004a857620004a762000332565b5b81810290505b9392505050565b6000819050919050565b600060ff82169050919050565b6000620004d982620004b5565b9150620004e683620004bf565b9250620005157fffffffffffffffffffffffffffffffffffffffffffffffffffffffffffffffff8484620003c9565b905092915050565b60006200052a82620004b5565b91506200053783620004b5565b9250817fffffffffffffffffffffffffffffffffffffffffffffffffffffffffffffffff048311821515161562000573576200057262000332565b5b828202905092915050565b600082825260208201905092915050565b7f45524332303a206d696e7420746f20746865207a65726f206164647265737300600082015250565b6000620005c7601f836200057e565b9150620005d4826200058f565b602082019050919050565b60006020820190508181036000830152620005fa81620005b8565b9050919050565b60006200060e82620004b5565b91506200061b83620004b5565b9250827fffffffffffffffffffffffffffffffffffffffffffffffffffffffffffffffff0382111562000653576200065262000332565b5b828201905092915050565b6200066981620004b5565b82525050565b60006020820190506200068660008301846200065e565b92915050565b7f4e487b7100000000000000000000000000000000000000000000000000000000600052602260045260246000fd5b60006002820490506001821680620006d457607f821691505b602082108103620006ea57620006e96200068c565b5b50919050565b61129380620007006000396000f3fe608060405234801561001057600080fd5b50600436106100b45760003560e01c80633950935111610071578063395093511461019157806370a08231146101c157806395d89b41146101f1578063a457c2d71461020f578063a9059cbb1461023f578063dd62ed3e1461026f576100b4565b806306fdde03146100b9578063095ea7b3146100d757806318160ddd1461010757806323b872dd146101255780632ddbd13a14610155578063313ce56714610173575b600080fd5b6100c161029f565b6040516100ce9190610b4e565b60405180910390f35b6100f160048036038101906100ec9190610c09565b610331565b6040516100fe9190610c64565b60405180910390f35b61010f610354565b60405161011c9190610c8e565b60405180910390f35b61013f600480360381019061013a9190610ca9565b61035e565b60405161014c9190610c64565b60405180910390f35b61015d61038d565b60405161016a9190610c8e565b60405180910390f35b61017b610394565b6040516101889190610d18565b60405180910390f35b6101ab60048036038101906101a69190610c09565b61039d565b6040516101b89190610c64565b60405180910390f35b6101db60048036038101906101d69190610d33565b6103d4565b6040516101e89190610c8e565b60405180910390f35b6101f961041c565b6040516102069190610b4e565b60405180910390f35b61022960048036038101906102249190610c09565b6104ae565b6040516102369190610c64565b60405180910390f35b61025960048036038101906102549190610c09565b610525565b6040516102669190610c64565b60405180910390f35b61028960048036038101906102849190610d60565b610548565b6040516102969190610c8e565b60405180910390f35b6060600380546102ae90610dcf565b80601f01602080910402602001604051908101604052809291908181526020018280546102da90610dcf565b80156103275780601f106102fc57610100808354040283529160200191610327565b820191906000526020600020905b81548152906001019060200180831161030a57829003601f168201915b5050505050905090565b60008061033c6105cf565b90506103498185856105d7565b600191505092915050565b6000600254905090565b6000806103696105cf565b90506103768582856107a0565b61038185858561082c565b60019150509392505050565b620f424081565b60006012905090565b6000806103a86105cf565b90506103c98185856103ba8589610548565b6103c49190610e2f565b6105d7565b600191505092915050565b60008060008373ffffffffffffffffffffffffffffffffffffffff1673ffffffffffffffffffffffffffffffffffffffff168152602001908152602001600020549050919050565b60606004805461042b90610dcf565b80601f016020809104026020016040519081016040528092919081815260200182805461045790610dcf565b80156104a45780601f10610479576101008083540402835291602001916104a4565b820191906000526020600020905b81548152906001019060200180831161048757829003601f168201915b5050505050905090565b6000806104b96105cf565b905060006104c78286610548565b90508381101561050c576040517f08c379a000000000000000000000000000000000000000000000000000000000815260040161050390610ef7565b60405180910390fd5b61051982868684036105d7565b60019250505092915050565b6000806105306105cf565b905061053d81858561082c565b600191505092915050565b6000600160008473ffffffffffffffffffffffffffffffffffffffff1673ffffffffffffffffffffffffffffffffffffffff16815260200190815260200160002060008373ffffffffffffffffffffffffffffffffffffffff1673ffffffffffffffffffffffffffffffffffffffff16815260200190815260200160002054905092915050565b600033905090565b600073ffffffffffffffffffffffffffffffffffffffff168373ffffffffffffffffffffffffffffffffffffffff1603610646576040517f08c379a000000000000000000000000000000000000000000000000000000000815260040161063d90610f89565b60405180910390fd5b600073ffffffffffffffffffffffffffffffffffffffff168273ffffffffffffffffffffffffffffffffffffffff16036106b5576040517f08c379a00000000000000000000000000000000000000000000000000000000081526004016106ac9061101b565b60405180910390fd5b80600160008573ffffffffffffffffffffffffffffffffffffffff1673ffffffffffffffffffffffffffffffffffffffff16815260200190815260200160002060008473ffffffffffffffffffffffffffffffffffffffff1673ffffffffffffffffffffffffffffffffffffffff168152602001908152602001600020819055508173ffffffffffffffffffffffffffffffffffffffff168373ffffffffffffffffffffffffffffffffffffffff167f8c5be1e5ebec7d5bd14f71427d1e84f3dd0314c0f7b2291e5b200ac8c7c3b925836040516107939190610c8e565b60405180910390a3505050565b60006107ac8484610548565b90507fffffffffffffffffffffffffffffffffffffffffffffffffffffffffffffffff81146108265781811015610818576040517f08c379a000000000000000000000000000000000000000000000000000000000815260040161080f90611087565b60405180910390fd5b61082584848484036105d7565b5b50505050565b600073ffffffffffffffffffffffffffffffffffffffff168373ffffffffffffffffffffffffffffffffffffffff160361089b576040517f08c379a000000000000000000000000000000000000000000000000000000000815260040161089290611119565b60405180910390fd5b600073ffffffffffffffffffffffffffffffffffffffff168273ffffffffffffffffffffffffffffffffffffffff160361090a576040517f08c379a0000000000000000000000000000000000000000000000000000000008152600401610901906111ab565b60405180910390fd5b610915838383610aab565b60008060008573ffffffffffffffffffffffffffffffffffffffff1673ffffffffffffffffffffffffffffffffffffffff1681526020019081526020016000205490508181101561099b576040517f08c379a00000000000000000000000000000000000000000000000000000000081526004016109929061123d565b60405180910390fd5b8181036000808673ffffffffffffffffffffffffffffffffffffffff1673ffffffffffffffffffffffffffffffffffffffff16815260200190815260200160002081905550816000808573ffffffffffffffffffffffffffffffffffffffff1673ffffffffffffffffffffffffffffffffffffffff1681526020019081526020016000206000828254610a2e9190610e2f565b925050819055508273ffffffffffffffffffffffffffffffffffffffff168473ffffffffffffffffffffffffffffffffffffffff167fddf252ad1be2c89b69c2b068fc378daa952ba7f163c4a11628f55a4df523b3ef84604051610a929190610c8e565b60405180910390a3610aa5848484610ab0565b50505050565b505050565b505050565b600081519050919050565b600082825260208201905092915050565b60005b83811015610aef578082015181840152602081019050610ad4565b83811115610afe576000848401525b50505050565b6000601f19601f8301169050919050565b6000610b2082610ab5565b610b2a8185610ac0565b9350610b3a818560208601610ad1565b610b4381610b04565b840191505092915050565b60006020820190508181036000830152610b688184610b15565b905092915050565b600080fd5b600073ffffffffffffffffffffffffffffffffffffffff82169050919050565b6000610ba082610b75565b9050919050565b610bb081610b95565b8114610bbb57600080fd5b50565b600081359050610bcd81610ba7565b92915050565b6000819050919050565b610be681610bd3565b8114610bf157600080fd5b50565b600081359050610c0381610bdd565b92915050565b60008060408385031215610c2057610c1f610b70565b5b6000610c2e85828601610bbe565b9250506020610c3f85828601610bf4565b9150509250929050565b60008115159050919050565b610c5e81610c49565b82525050565b6000602082019050610c796000830184610c55565b92915050565b610c8881610bd3565b82525050565b6000602082019050610ca36000830184610c7f565b92915050565b600080600060608486031215610cc257610cc1610b70565b5b6000610cd086828701610bbe565b9350506020610ce186828701610bbe565b9250506040610cf286828701610bf4565b9150509250925092565b600060ff82169050919050565b610d1281610cfc565b82525050565b6000602082019050610d2d6000830184610d09565b92915050565b600060208284031215610d4957610d48610b70565b5b6000610d5784828501610bbe565b91505092915050565b60008060408385031215610d7757610d76610b70565b5b6000610d8585828601610bbe565b9250506020610d9685828601610bbe565b9150509250929050565b7f4e487b7100000000000000000000000000000000000000000000000000000000600052602260045260246000fd5b60006002820490506001821680610de757607f821691505b602082108103610dfa57610df9610da0565b5b50919050565b7f4e487b7100000000000000000000000000000000000000000000000000000000600052601160045260246000fd5b6000610e3a82610bd3565b9150610e4583610bd3565b9250827fffffffffffffffffffffffffffffffffffffffffffffffffffffffffffffffff03821115610e7a57610e79610e00565b5b828201905092915050565b7f45524332303a2064656372656173656420616c6c6f77616e63652062656c6f7760008201527f207a65726f000000000000000000000000000000000000000000000000000000602082015250565b6000610ee1602583610ac0565b9150610eec82610e85565b604082019050919050565b60006020820190508181036000830152610f1081610ed4565b9050919050565b7f45524332303a20617070726f76652066726f6d20746865207a65726f2061646460008201527f7265737300000000000000000000000000000000000000000000000000000000602082015250565b6000610f73602483610ac0565b9150610f7e82610f17565b604082019050919050565b60006020820190508181036000830152610fa281610f66565b9050919050565b7f45524332303a20617070726f766520746f20746865207a65726f20616464726560008201527f7373000000000000000000000000000000000000000000000000000000000000602082015250565b6000611005602283610ac0565b915061101082610fa9565b604082019050919050565b6000602082019050818103600083015261103481610ff8565b9050919050565b7f45524332303a20696e73756666696369656e7420616c6c6f77616e6365000000600082015250565b6000611071601d83610ac0565b915061107c8261103b565b602082019050919050565b600060208201905081810360008301526110a081611064565b9050919050565b7f45524332303a207472616e736665722066726f6d20746865207a65726f20616460008201527f6472657373000000000000000000000000000000000000000000000000000000602082015250565b6000611103602583610ac0565b915061110e826110a7565b604082019050919050565b60006020820190508181036000830152611132816110f6565b9050919050565b7f45524332303a207472616e7366657220746f20746865207a65726f206164647260008201527f6573730000000000000000000000000000000000000000000000000000000000602082015250565b6000611195602383610ac0565b91506111a082611139565b604082019050919050565b600060208201905081810360008301526111c481611188565b9050919050565b7f45524332303a207472616e7366657220616d6f756e742065786365656473206260008201527f616c616e63650000000000000000000000000000000000000000000000000000602082015250565b6000611227602683610ac0565b9150611232826111cb565b604082019050919050565b600060208201905081810360008301526112568161121a565b905091905056fea264697066735822122072d059b1afcea2d36e31e7f9d1d46b68bdcb32e86aeda093b5d8932dba12db6164736f6c634300080e0033",
  "immutableReferences": {},
  "source": "// SPDX-License-Identifier: MIT\r\npragma solidity ^0.8.0;\r\nimport '@openzeppelin/contracts/token/ERC20/ERC20.sol';\r\n\r\nimport \"./axsToken.sol\";\r\nimport \"./skyToken.sol\";\r\n\r\ncontract dex {\r\n    axsToken public AxsToken;\r\n    skyToken public SkyToken;\r\n    \r\n  event TokenPurchased(\r\n    address account,\r\n    address token,\r\n    uint amount\r\n  );\r\n  event TokensSold(\r\n    address account,\r\n    address token,\r\n    uint amount\r\n  );\r\n  event TokensSwaped(\r\n    address account,\r\n    address token1,\r\n    address token2,\r\n    uint amount\r\n  );\r\n\r\n\r\n    constructor() {\r\n        AxsToken = new axsToken();\r\n        SkyToken= new skyToken();\r\n        \r\n    }\r\n\r\n    function buy(ERC20 token, uint tokenAmount) public payable {\r\n\r\n         \r\n          require(token.balanceOf(address(this)) >= tokenAmount);\r\n          token.transfer(msg.sender, tokenAmount);\r\n          emit TokenPurchased(msg.sender, address(SkyToken), tokenAmount);\r\n\r\n        \r\n\r\n    }\r\n\r\n    function sell(ERC20 token, uint tokenAmount, uint ethAmount) public{\r\n\r\n        \r\n        token.transferFrom(msg.sender, address(this), tokenAmount);\r\n        payable(msg.sender).transfer(ethAmount);\r\n        emit TokensSold(msg.sender, address(token), tokenAmount);\r\n\r\n    }\r\n\r\n    function swapToken(\r\n        ERC20 token1,\r\n        ERC20 token2,\r\n        uint256 token1Amount,\r\n        uint256 token2Amount\r\n    ) public {\r\n        token1.transferFrom(msg.sender, address(this), token1Amount);\r\n        token2.transfer(msg.sender, token2Amount);\r\n        emit TokensSwaped(msg.sender, address(token1), address(token2), token1Amount);\r\n    }\r\n\r\n    \r\n}\r\n",
  "sourcePath": "C:\\Users\\SAPANCHO\\Downloads\\AssignmentOfEthereum\\contracts\\dex.sol",
  "compiler": {
    "name": "solc",
    "version": "0.8.14+commit.80d49f37.Emscripten.clang"
  },
  "schemaVersion": "3.4.8",
  "updatedAt": "2022-07-15T03:23:14.952Z",
  "networkType": "ethereum",
  "devdoc": {
    "kind": "dev",
    "methods": {},
    "version": 1
  },
  "userdoc": {
    "kind": "user",
    "methods": {},
    "version": 1
  }
}